:100000000C942A000C9453000C9453000C9453004D
:100010000C9453000C9453000C9453000C94530014
:100020000C9453000C9453000C9453000C94530004
:100030000C9453000C9453000C9453000C945300F4
:100040000C9453000C9453000C9453000C945300E4
:100050000C94530011241FBECFE5D4E0DEBFCDBF0A
:0C0060000E9436000C943400F894FFCF8E
:10006C008FEF8ABB80E481BB8FEF8BBB80E482BBBC
:10007C002FE38DE093E0215080409040E1F700C0E9
:10008C0000001BBA12BA2FE38DE093E021508040A0
:0A009C009040E1F700C00000E7CF3C
:0400A6000C940000B6
:00000001FF
