:1000000036C00000D5C7000083C7000085C70000C8
:100010007FC700007DC700007BC7000079C70000D4
:1000200077C7000075C7000073C7000071C70000E4
:100030006FC700006DC700006BC7000069C70000F4
:1000400067C7000065C7000063C7000061C7000004
:100050005FC7000076007A007B007C00880070009B
:100060007300006000A68000A600AA0010161124EC
:100070001FBECFE5D4E0DEBFCDBFE2E6F0E040E05A
:1000800017C0B591A59135912591059107FD0CC03B
:1000900095918591EF01F92FE82F05900D92A21708
:1000A000B307D9F7FE0104C01D92A217B307E1F709
:0E00B000EE36F40731F703D000C0F894FFCF0E
:1000BE002BD0C0E08C2F04D0CF5FC730D9F7F9CF4B
:1000CE0090E08730910508F00895FC01E65DFF4F42
:1000DE000AC38AE090E04BC284E690E092C062E1EF
:1000EE007FE080E004C18CC1C7C160E083E090E096
:1000FE0030D061E083E090E02CD062E083E090E0CD
:08010E0028C08AE090E092C2D3
:1001160080E090E045D3CB013AD381E08093610043
:10012600109260008FEF8ABB1BBA87BB18BA84BBDC
:1001360015BA8BEF81BB84E082BB8AE083BD85B5AF
:100146008D6085BD89B7806889BF85B7826085BFA8
:0A0156008BB780648BBF7894089586
:10016000EF92FF920F931F93CF93DF93EC01E62E54
:1001700002EA10E0E2E6F0E0CF0108961192E817FB
:10018000F907E1F70E171F07B9F72097D1F1F12C06
:10019000E2E6F0E0CF01089611928E179F07E1F793
:1001A000FC0108171907B1F76F2D8E2D0DD32CEC1C
:1001B0008CEC91E0215080409040E1F700C0F39436
:1001C00027E0F212E5CF87E0F82EE2E6F0E0CF017B
:1001D000089611928E179F07E1F7FC01081719077F
:1001E000B1F76F2D8E2DF0D28CEC9CEC21E081507C
:1001F00090402040E1F700C0FA94F110E6CF21973B
:1002000031F6DF91CF911F910F91FF90EF900895FC
:10021000DF92EF92FF920F931F93CF93DF937C01B6
:10022000E2E6F0E022EA30E0CF0108961192E8170A
:10023000F907E1F72E173F07B9F7E114F10409F4C4
:1002400043C001E010E0A3D28370907897FD51C0C5
:1002500092E0D92ED80E49F1D0E018C0C82F97D21D
:10026000C93088F48770907897FD1AC0893058F4A7
:10027000FC01EE59FF4F980101C0220FCA95EAF721
:1002800080AD282B20AFDF5FDD1578F480D287703A
:10029000907897FFE3CF0197886F9F6F0196DECF2D
:1002A0000197886F9F6F0196E1CF26E686E293E083
:1002B000215080409040E1F760E082E0B3D221E03D
:1002C000E21AF10809F0BFCFC8E086E696E223E023
:1002D000815090402040E1F760E082E0A3D2C1501D
:1002E000A1F7DF91CF911F910F91FF90EF90DF90D9
:0C02F000089501978C6F9F6F0196AACFB4
:1002FC00AF92BF92CF92DF92EF92FF920F931F9328
:10030C00CF93DF9300D000D01F92CDB7DEB76B0137
:10031C00E82EE2E6F0E0CF01089611928E179F07C7
:10032C00E1F7FC01825A9040B1F7F6018491E7FCA9
:10033C008081882309F446C09E012A5F3F4F5901F2
:10034C0000E810E03FEFC31AD30AE30ABE016F5F67
:10035C007F4FB6D3DE01119663E670E04D9150E00D
:10036C00FB0180E090E09801082E02C0359527959E
:10037C000A94E2F724233523232B19F020812160E2
:10038C002083019638968830910569F76F5F7F4F0F
:10039C00AA16BB0619F786E0F82E8FEF9FE322E032
:1003AC00815090402040E1F700C0000061E080E007
:1003BC0033D2FA94F110F1CFF6018491E7FC8081ED
:1003CC008111C0CF18E03FEF8FE392E031508040B5
:1003DC009040E1F700C0000061E080E01DD21150B8
:1003EC0091F70F900F900F900F900F90DF91CF918E
:1003FC001F910F91FF90EF90DF90CF90BF90AF9037
:02040C00089551
:10040E00E2E6F0E042EA50E0DF01CD0108961D92EF
:10041E00A817B907E1F74A175B07B9F7A2E6B0E0EC
:10042E002FEFCD0108962D9339E969E571E0315032
:10043E0060407040E1F700008A179B07A1F7825ACF
:10044E00904079F769E979EB84E061507040804023
:10045E00E1F70000CF010896119229E939E561E034
:10046E00215030406040E1F70000E817F907A1F78E
:08047E004E175F0779F708959E
:10048600CF92DF92EF92FF920F931F93CF93E2E604
:10049600F0E022EA30E0CF0108961192E817F9075A
:1004A600E1F72E173F07B9F7E12CF12CCC24C394C2
:1004B600D12C21C0C82F68D18C0166D1C93068F40F
:1004C60098012770307837FD42C0293030F48770A4
:1004D600907897FD4BC08930C0F08FEF9FE8019769
:1004E600F1F700C000008FEFE81AF80A9FEFE9164F
:1004F60091E0F90698F548D18770907897FFDACFA2
:100506000197886F9F6F0196D5CFFC01EE0FFF1FF5
:10051600EE0FFF1FEE0FFF1FEE59FF4FE20FF31F07
:100526002081822F90E00C2E02C0959587950A9423
:10053600E2F780FD08C0C60101C0880FCA95EAF738
:10054600282B2083CACF91E0E91AF108CCCF21509D
:100556003109286F3F6F2F5F3F4FB7CFCF911F9164
:100566000F91FF90EF90DF90CF9008950197886FDD
:060576009F6F0196B0CF5B
:10057C00EF92FF920F931F93CF93DF93EC0102EA5C
:10058C0010E0E2E6F0E0CF0108961192E817F907C7
:10059C00E1F70E171F07B9F7209709F441C097E050
:1005AC00E92E83E0F82EE2E6F0E0CF0108961192F6
:1005BC008E179F07E1F7FC0108171907B1F76E2D8D
:1005CC006F198F2DAAD222E383EB92E02150804049
:1005DC009040E1F700C000C0FA942FEFF212E3CF85
:1005EC00F12CE2E6F0E0CF0108961192E817F9073A
:1005FC00E1F70E171F07B9F76E2D6F198F2D8DD2DE
:10060C0082E393EB22E0815090402040E1F700C060
:10061C0000C0F39484E0F812E4CF219709F0C1CF25
:0E062C00DF91CF911F910F91FF90EF900895F5
:10063A00CF92DF92EF92FF921F93CF93DF937C01C9
:10064A00E2E6F0E0CF01089611928E179F07E1F7D4
:10065A00FC01825A9040B1F7E114F10481F11FEFD5
:10066A008AE2C82E80E0D82EC2E6D0E01883188726
:10067A008CEC9CEC21E0815090402040E1F700C0D6
:10068A0061E081E0CAD0289680E0CA39D80771F7BC
:10069A00C2E6D0E018AF18AB9CEC2CEC81E091508C
:1006AA0020408040E1F700C061E081E0B6D02897A1
:1006BA00CC16DD0679F791E0E91AF108A9F6C8E047
:1006CA002CEC8CEC91E0215080409040E1F700C086
:1006DA0061E081E0A2D0C15099F7DF91CF911F91DB
:0A06EA00FF90EF90DF90CF9008958D
:0C06F400EE0FFF1F0590F491E02D09941B
:100700008F929F92AF92BF92CF92DF92EF92FF9221
:10071000CF93DF93EC01688179818A819B81611598
:1007200071058105910521F464E279ED8BE597E08F
:100730002DE133EF41E050E03AD349015A019B01EA
:10074000AC01A7EAB1E423D36B017C01ACEEB4EFBA
:10075000A501940128D3DC01CB018C0D9D1DAE1D9C
:10076000BF1DB7FF03C00197A109B04888839983D3
:10077000AA83BB839F77DF91CF91FF90EF90DF90AB
:10078000CF90BF90AF909F908F900895B9CF86EA99
:1007900090E0B6CFA0E0B0E0E6EAF0E0808391839D
:0607A000A283B38308955B
:1007A600FC010FB6F894A2EAB0E06D917D918D91AF
:1007B6009C910FBE309721F060837183828393836F
:0207C600089594
:1007C800813059F030F0823019F46830A8F008957B
:1007D80008956830E0F7862FFAC26830C0F770E0F5
:1007E800FB01EE59FF4F6E557F4F8FEF8083389690
:1007F800E617F707D9F7089570E0660F771F660FB9
:10080800771F660F771FFB01EE59FF4F66597F4F21
:0C0818008FEF8193E617F707E1F70895D2
:100824002F923F924F925F926F927F928F929F92FC
:10083400AF92BF92CF92DF92EF92FF920F931F93EA
:10084400CF93DF93CDB7DEB76A970FB6F894DEBFC8
:100854000FBECDBF682E362E1E8A44244394512CDD
:10086400332009F422C127E03E89231B8824839482
:10087400820E4FEF420F4A83311021C18982698170
:10088400862F90E0D20102C0AA0FBB1F6A95E2F73F
:10089400BC83AB83422F50E05B8B4A8BD20102C0F6
:1008A400AA0FBB1F2A95E2F72A2E7A2E7094B2E67D
:1008B400CB2EB0E0DB2E9A01220F331F220F331F01
:1008C400220F331FA9014E595F4F5B874A879C0152
:1008D400220F331F220F331F220F331FD901AE59AA
:1008E400BF4FBD87AC87A12CB12C2A893B892E59D7
:1008F4003F4F3F872E87AC014E595F4F598B488B32
:100904008A859B859D8B8C8B72010A2C02C0EE0C10
:10091400FF1C0A94E2F74E2D40954987AE85BF85AA
:10092400288939894C855D85F6018A859B85988F50
:100934008F8B80E090E08501000F111F000F111FC5
:10094400000F111F0E591F4FDE82CD82B886AF8271
:10095400D72CBE2CBA8FA98F762D20C071112DC033
:100964006081862E912CAB81BC818A229B228928AE
:10097400E9F0622960830196AF89B88D1196B88F2A
:10098400AF8B3196A98DBA8D1896BA8FA98F285F2F
:100994003F4F4F5F5F4F88309105B1F13320F1F243
:1009A40071110BC0AA81A930D8F260814801880E68
:1009B400991E6D21D4016C93DECF713089F07230B1
:1009C400D1F6B981B93008F462C06C887D88680EAC
:1009D400791ED3016C91B9856B23D3016C93CBCF72
:1009E400B981B93008F445C03C01660C771C660C2B
:1009F400771C660C771CD301AE59BF4F3D01AA8901
:100A0400BB896A0E7B1EE5CFAF80B8847D2CCD8078
:100A1400DE80672EBFEFAB1ABB0A28E0C20ED11CE2
:100A240038E0A316B10409F06FCF9E899F5F9E8BB7
:100A3400973009F015CF332009F444C060E0862DC7
:100A44006A960FB6F894DEBF0FBECDBFDF91CF918B
:100A54001F910F91FF90EF90DF90CF90BF90AF90D8
:100A64009F908F907F906F905F904F903F902F90CA
:100A7400C6C1D9016C90712C6E207F20672809F4BF
:100A8400B3CFA98DBA8D6C916B296C9374CFDA01B5
:100A94006C90712C6E207F20672809F496CFAF8963
:100AA400B88D6C916B296C9366CF2E8988248394BE
:100AB400820E4FEF420F4A83332009F4DFCE5A816E
:080AC4005983DDCE67E0BBCFD2
:100ACC00CF92DF92EF920F931F93CF93DF938052CD
:100ADC0025E0829F60011124C601DD0CAA0B9C014C
:100AEC004A2F205030404F476901E42EEB018B0117
:100AFC000B5F1F4F8E2DB601AAD189933FEFC31AFE
:100B0C00D30AE30AC017D107A9F7DF91CF911F9140
:0A0B1C000F91EF90DF90CF90089545
:100B26002F923F924F925F926F927F928F929F92F7
:100B3600AF92BF92CF92DF92EF92FF920F931F93E5
:100B4600CF93DF9300D000D000D0CDB7DEB76817C3
:100B560008F477C0462F50E071E0B72E062E01C08C
:100B6600BB0C0A94EAF7C82ED12CDC82CB82082E65
:100B760001C0770F0A94EAF7982FDA01AA0FBB1F74
:100B8600AA0FBB1FAA0FBB1F9D012E593F4F3A83C9
:100B960029831601220C331C220C331C220C331C15
:100BA600F101EE59FF4F7F0144244394512C8601F5
:100BB600020D131D0E591F4F49018C0C9D1C3F0140
:100BC600640E751E993030F4893008F453C06930CC
:100BD60008F4C6C0693018F4993008F4C8C08930E2
:100BE60008F099C0993008F4A5C0693038F59930F5
:100BF60028F5292F30E0220F331F220F331F220F33
:100C0600331FF901EE59FF4FFE83ED836F01C40ECA
:100C1600D51EF601A080A72AA082ED81FE81CB8099
:100C2600DC80EC0DFD1DD080DB28D0822E593F4F95
:100C3600F901E40FF51F20812B2920839F5F691797
:100C460008F626960FB6F894DEBF0FBECDBFDF912D
:100C5600CF911F910F91FF90EF90DF90CF90BF90B3
:100C6600AF909F908F907F906F905F904F903F9046
:100C76002F900895C92ED12CDE82CD829201092EA5
:100C860001C0220F0A94EAF7D22EF801C080C22AC8
:100C9600C082693040F0ED81FE81EE0DFF1D20819E
:100CA600272B20839CCFF4013081322B3083F30134
:100CB6003081232B2083FD01E40FF51FEE59FF4FF2
:100CC6002081D22AD082893008F084CF292F30E0C3
:100CD600F701E20FF31FD080D72AD082693008F0DF
:100CE6007ECFFD01EE59FF4FE20FF31FD080D72ACA
:100CF600D082F101EE59FF4FE20FF31FD080DB28BF
:100D0600D082FD01EE59FF4FE20FF31FD080DB28A2
:100D1600D082893088F0693008F090CF993008F099
:100D26008DCF292F30E0220F331F220F331F220FC2
:100D3600331F7CCF292F30E0F901EE0FFF1FEE0F96
:100D4600FF1FEE0FFF1FEE59FF4FCB80DC80EC0D2F
:100D5600FD1D2081272B2083893008F446CFDBCF69
:100D6600D42C092E01C0DD0C0A94EAF7A4CF8930F1
:100D760040F0E981FA81E90FF11D20812B292083BA
:080D8600CACF292F30E0B5CFE0
:100D8E006ED0A59F900DB49F900DA49F800D911DC8
:040D9E00112408957F
:0C0DA200B7FFF4CFF3DF821B930B089522
:100DAE00052E97FB16F4009469D057FD05D06ED032
:100DBE0007FC02D046F462C05095409530952195BF
:080DCE003F4F4F4F5F4F0895A6
:100DD60091E001C0990F8A95EAF7E2E6F0E042EA6F
:100DE60050E09F01285F3F4F8081892B8193E21756
:0C0DF600F307D1F74E175F07A1F708952F
:100E0200813059F030F0823019F46830A0F0089542
:100E120008956830E0F7862F61C06830C0F770E04F
:100E2200FB01EE59FF4F6E557F4F10823896E61741
:100E3200F707D9F7089570E0660F771F660F771FDF
:100E4200660F771FFB01EE59FF4F66597F4F1192D4
:080E5200E617F707E1F7089528
:100E5A00CB01E199FECF9FBB8EBBE09A99278DB358
:020E6A000895E9
:100E6C00A29FB001B39FC001A39F700D811D1124DF
:0E0E7C00911DB29F700D811D1124911D0895CE
:100E8A0090958095709561957F4F8F4F9F4F0895EC
:100E9A00A1E21A2EAA1BBB1BFD010DC0AA1FBB1F74
:100EAA00EE1FFF1FA217B307E407F50720F0A21BE6
:100EBA00B30BE40BF50B661F771F881F991F1A9453
:100ECA0069F760957095809590959B01AC01BD017D
:040EDA00CF010895A7
:100EDE0021E030E001C0220F8A95EAF7922F90951B
:100EEE00E2E6F0E042EA50E09F01285F3F4F80814A
:100EFE0089238193E217F307D1F74E175F07A1F706
:020F0E00089544
:020F100077C8A0
:060F12005354415254004B
:100F18001F920F920FB60F9211242F933F934F9366
:100F28005F938F939F93EF93FF9318BA979A80E0FC
:100F380090E041E050E020916000FC0138E0239F00
:100F4800E00DF11D1124EE59FF4F20812BBB9A01B2
:100F5800082E01C0220F0A94EAF725BB01968830B3
:100F6800910549F781E090E00090600002C0880F89
:100F7800991F0A94E2F788BB9798809160008F5F69
:100F8800883079F080936000FF91EF919F918F9165
:100F98005F914F913F912F910F900FBE0F901F902F
:080FA800189510926000F0CFD3
:100FB0001F920F920FB60F9211242F938F939F932E
:100FC000F894969A809161008823E1F089B78F7731
:100FD00089BF18BA979A1BBA15BA109261002FEF01
:100FE0008FEF99E5215080409040E1F700C000006C
:100FF000969878949F918F912F910F900FBE0F909C
:101000001F90189514BC89B7806889BF979881E0B4
:0610100080936100E4CFB3
:0410160001000000D5
:00000001FF
